:1000000054C300007AC3000078C300000C940F2A88
:1000100074C300000C94EA2970C300006EC3000092
:100020006CC300006AC3000068C3000066C3000020
:1000300064C3000062C3000060C300005EC3000030
:100040000C94D7245AC300000C945E240C94902482
:1000500054C3000052C3000050C300004EC3000050
:100060004CC300004AC300007F187F188C194E193A
:1000700017197F187F187F1817194E192020202074
:10008000202000257500256400222563223A25647E
:10009000002C2256223A5B0022257322006C6F67E7
:1000A0004944006C6F6754797065002575006E7562
:1000B0006C6C002225732200537461746500526FCA
:1000C0006F6D54656D7000467269646765416E6E50
:1000D00000467269646765536574004672696467B7
:1000E0006554656D700042656572416E6E004265D3
:1000F0006572536574004265657254656D700022C7
:10010000257322004E3A7B2276223A222553222C56
:10011000226E223A222553222C2273223A25642C65
:100120002279223A25642C2262223A222563222C4B
:10013000226C223A222564227D00302E322E31306C
:1001400000756E6F6666696369616C002553207384
:10015000657420746F2025732025530046726964EE
:1001600067652074656D7000426565722074656D09
:1001700070004D6F64650062792074656D70657202
:1001800061747572652070726F66696C6500696E66
:100190002077656220696E746572666163650070C0
:1001A0006F735065616B006E65675065616B0070C1
:1001B0006F735065616B457374006E656750656160
:1001C0006B457374006573745065616B00640069FE
:1001D00000700062656572536C6F706500646966DB
:1001E00066496E74656772616C0062656572446928
:1001F0006666006873006C61680062656572536CC6
:100200006F706546696C740062656572536C6F77D8
:1002100046696C7400626565724661737446696C08
:100220007400667269646765536C6F706546696CCB
:100230007400667269646765536C6F7746696C74A5
:10024000006672696467654661737446696C740020
:100250006D6178436F6F6C54696D65466F7245735D
:1002600074006D61784865617454696D65466F729C
:1002700045737400636F6F6C5461726765744C00F2
:10028000636F6F6C54617267657448006865617470
:100290005461726765744C0068656174546172677B
:1002A0006574480069646C6552616E67654C0069ED
:1002B000646C6552616E67654800694D617845728E
:1002C00072004B64004B69004B70007069644D61B3
:1002D000780074656D705365744D61780074656D58
:1002E000705365744D696E0074656D70466F726D04
:1002F000617400636F6F6C45737400686561744569
:10030000737400667269646765536574006265653D
:1003100072536574006D6F64650015030000ED1184
:100320000D0300008D11030300000D12FB023303C7
:10033000880EF3023503880EE8020000440EDD0249
:1003400038034C0ED2023A034C0ECB025C03900EE3
:10035000C8023C03880EC5023E03880EC202400359
:10036000880EBA024203900EAF024403900EA4021C
:100370004603900E98024803900E8C024A03900E9A
:1003800080024C03900E74024E03900E62025003E2
:10039000980E50025203980EF6015A03A00EF30174
:1003A0005B03A00E41020000540E32020100540E05
:1003B00022020200540E15020300540E080204002B
:1003C000540EFA010500540EEA010003DD01020398
:1003D000D3010603D1010802CF010A02CD010C02AC
:1003E000C5010E01BA011001AF011201A7011401EC
:1003F0009F011601E8020004DD020101D20203019F
:10040000CB022503C8020502C5020702C202090287
:10041000BA020B03AF020D03A4020F0398021103EB
:100420008C0213038002150374021703620219057C
:1004300050021B0541021D0032021E0022021F0055
:100440001502200008022100FA012200F601230013
:10045000F301240000020400030001100302000065
:100460000302010006000400060500200605040042
:100470000302010023000100130200000305040031
:1004800003030410030503200000000046726964A2
:10049000676520646F6F7220255300636C6F73650E
:1004A00064006F70656E6564004300A200DC000AA2
:1004B000800000030001000200FE9A009AFF66001F
:1004C00066FF5802B0040104030304040000001492
:1004D00066616C73650074727565006E756C6C0096
:1004E00025642E253033640025642E2530326400C7
:1004F00025642E25303164006E756C6C00256468AF
:10050000253032646D2530326400556E6B6E6F7726
:100510006E20737461747573210054656D702E20A4
:10052000636F6E74726F6C204F464600446F6F723B
:10053000206F70656E0057616974696E6720666F21
:1005400072207065616B0049646C00496E76616C65
:100550006964206D6F6465002A2A2054657374698C
:100560006E67202A2A004F66660050726F66696CBB
:100570006500526F6F6D2020004D6F646500202D67
:100580002D2E2D00002074696D65206C6566740049
:100590005761697420746F2000696E6720666F72FE
:1005A000004865617400436F6F6C00436F6E737435
:1005B0002E004672696467652000426565722000FE
:1005C0000000000800020100000304070000000012
:1005D000000000000102040810204080010204080D
:1005E000102001020408102004040404040404047C
:1005F00002020202020203030303030300000000DD
:1006000023002600290000000000250028002B0000
:1006100000000000240027002A00426565720046A1
:1006200072696467650025532074656D7020736579
:100630007420746F20257320696E204D656E752EB1
:100640000054656D7020636F6E74726F6C207475EA
:10065000726E6564206F666620696E206D656E75CA
:100660002E004368616E67656420746F2070726F3E
:1006700066696C65206D6F646520696E206D656EBE
:10068000752E002020202020202020202020202027
:10069000000011042B0B161BC8214F26FE26E22951
:1006A0001A04420B2F1BCD21072711241FBECFEFA9
:1006B000D8E0DEBFCDBF12E0A0E0B1E0E2EAF8E6AC
:1006C00002C005900D92AA35B107D9F724E0AAE53A
:1006D000B2E001C01D92A139B207E1F716E0C0EA0D
:1006E000D6E004C02297FE010E94542FC239D107E0
:1006F000C9F70E9412270C9445340C941D2722E25E
:1007000031E0FC01318320830895FC016283089568
:10071000FC018281089522E231E0FC0131832083D3
:10072000089522E231E0FC01318320830C94D4242B
:10073000089522E231E0FC01318320830C94D4241B
:1007400008958F929F92AF92BF92CF92DF92EF92D5
:10075000FF920E945F2C0E94090F0E94C0140E9409
:1007600054140E9421254B015C010E946D2C6B01E9
:100770007C010E942125681979098A099B09C616FE
:10078000D706E806F90618F00E94762CF2CF0E94F0
:10079000712CFF90EF90DF90CF90BF90AF909F9023
:1007A0008F9008950F931F930E94762C0E949D2C8A
:1007B000811130C00E94212500910601109107018E
:1007C0002091080130910901601B710B820B930B82
:1007D000683E734081059105E8F00E9421256093F1
:1007E00006017093070180930801909309010E940C
:1007F0009C140E94271A0E942D15109115030E9427
:1008000006188091150318130E946B110E94D419C9
:100810000E94932C0E94D5121F910F910895C2CF70
:1008200008958EE291E090935B0280935A021092B9
:100830005C02089582E291E090935B0280935A02F9
:1008400008952FEF2F5FFC01E20FF11D27FDFA95B0
:100850003081332321F06313F5CF822F08958FEF7A
:1008600008952AE731E0FC0131832083089580E078
:100870000895DC01ED91FC910084F185E02D09954E
:1008800021E08115904809F420E0822F089580E04E
:1008900090E8089522EA31E0FC0131832083089535
:1008A00022EA31E0FC0131832083089522EA31E01D
:1008B000FC0131832083089522E231E0FC01318381
:1008C000208308952AE731E0FC01318320830895D5
:1008D00080E008952AE731E0FC01318320830C9405
:1008E000D424089522EA31E0FC01318320830C9462
:1008F000D424089522EA31E0FC01318320830C9452
:10090000D424089522EA31E0FC01318320830C9441
:10091000D424089522E231E0FC01318320830C9439
:10092000D42408952AE731E0FC01318320830C941C
:10093000D4240895FC012281622783810C94D02560
:100940000895CF93DF93EC018B810E94022621E072
:10095000892B09F420E08A818227DF91CF910895C5
:10096000CF93DF93EC018B810E9402262A8130E035
:1009700041E08217930709F440E0842FDF91CF9183
:1009800008950F931F93CF93DF938B01EA01FC012E
:10099000608186E391E055DF87FD08C0C80FD11D57
:1009A00087FDDA95C8010E94E1306883DF91CF911D
:1009B0001F910F9108950F931F93CF93DF938B0196
:1009C000EA01FC0160818CE391E03BDF87FD08C018
:1009D000C80FD11D87FDDA95C8010E94E1306883F8
:1009E000DF91CF911F910F9108958AE791E0909345
:1009F00073028093720282E291E090937502809379
:100A0000740282EA91E090937802809377020895CD
:100A1000613029F48250823058F080E008956230CD
:100A200019F48130D1F704C06111F7CF8111F5CFEE
:100A300081E008957F936F9323E431E03F932F93F8
:100A40008F9385E48F930E94B80D0F900F900F90B5
:100A50000F900F900F900895A0E0B0E0E2E3F5E072
:100A60000C948E2F8C01FC018381813021F1823026
:100A700009F04AC0F80184810E94C4297C0180E108
:100A800090E00E94D124EC01F801D78480E592E047
:100A900099838883FB82EA821D821C8281E08F8792
:100AA000B801695F7F4F48E050E0CE0106960E9492
:100AB0002031DE862BC084E090E0623089F40E9411
:100AC000D124EC01F801F58014812CEA31E039835E
:100AD000288362E0812F0E949725FA821B8316C02B
:100AE0000E94D124EC01F8018581148126E931E0CE
:100AF000398328838A831B8360E0CE011BDF61E09A
:100B0000812F0E94972502C0C0E0D0E0CE01CDB772
:100B1000DEB7E7E00C94AA2FFC018081823078F4E4
:100B20008181823060F4E281E150E93040F4F0E00C
:100B3000EE0FFF1FEC59FE4F80819181089580E0F8
:100B400090E00895A1E2B0E0E8EAF5E00C948F2F80
:100B50007C01162F211105C06CE249A30E94B72425
:100B600049A1842F992787FD90959F934F931F92BA
:100B70001F9389E890E09F938F938E010F5F1F4F23
:100B80001F930F930E945B31B801C7010E94B524E7
:100B90000FB6F894DEBF0FBECDBFA196E6E00C9471
:100BA000AB2F0AC60895FB012081222399F021343E
:100BB00008F027532295207FFB013181313410F05A
:100BC000375301C03053232BFC012193CF016E5FBB
:100BD0007F4FE9CF0895A2E0B0E0E1EFF5E00C949B
:100BE0008D2F6C017B018A01FC0160818CEB91E00F
:100BF00028DEF6019081913631F448E0B701C80152
:100C00000A96D1DF1EC09A3689F4B701CE0101964B
:100C10000E94FF1D8823A9F089819A8125E095957E
:100C200087952A95E1F7F80181870BC087FD09C0F8
:100C3000080F111D87FD1A95C7010E94E130F801C8
:100C400060832296E8E00C94A92FCF93DF93DA011A
:100C5000FC0170E09F01281B390B26173707BCF4F5
:100C6000EF01208122952F702A3010F0295C01C0FD
:100C7000205D2C93319628812F702A3010F0295C4A
:100C800001C0205D11962C9311971296E3CFFB01C2
:100C9000EE0FFF1FE40FF51F1082DF91CF91089533
:100CA000FC0120812F3F49F48381811110C081E034
:100CB000FB01928191110CC008C0332727FD3095AC
:100CC00050E081E02417350719F080E0089581E0B5
:100CD0000895A2E1B0E0EFE6F6E00C94902F8C01CD
:100CE000F12C6F2DCE01019667D5882331F1F801E3
:100CF00083819C8189131FC08130C1F08230F9F457
:100D00008885882399F088E0815080F0282F30E092
:100D1000F801E20FF31FA8E0B0E0AC0FBD1FA20F77
:100D2000B31F47819C91491779F305C0F80194815D
:100D30008D81981721F0F394D4CF8FEF01C08F2DC0
:100D40006296E5E00C94AC2F81508C3030F4E82FA3
:100D5000F0E0E85AFE4F8081089580E00895FF9208
:100D60000F931F93CF93DF938C01D6DEEC01009796
:100D700009F45BC0D8011296FC908F2DE5DF82301C
:100D800009F440C0833061F1813009F04EC08881A0
:100D90009981B6E0FB120E94981FE2E082379E071D
:100DA00009F443C0D80112962C91263029F422E789
:100DB00032E0398328830AC0E881F98122E732E0F2
:100DC00031832083EF50FF4F2FEF2083009769F18D
:100DD000DC01ED91FC910280F381E02D099525C0A5
:100DE00088819981B2E084379B07F9F0009739F048
:100DF000DC01ED91FC910680F781E02D099584E7F7
:100E000092E011C088819981B2E087379B0769F031
:100E1000009739F0DC01ED91FC910480F581E02D23
:100E2000099587E792E099838883CDB7DEB7E5E03F
:100E30000C94AC2FA2E1B0E0E0E2F7E00C94922F2A
:100E400081E089838A8310E01B83CE01019687DFCE
:100E50001F5F1031C9F76296E3E00C94AE2FA1E05A
:100E6000B0E0E5E3F7E00C948D2F6C01DC01129605
:100E70008C916ADF682FC60169834EDE8C0169811F
:100E80000097D1F1F6018681811136C0613049F0B9
:100E900098F1643088F5C601DFDDD8018D939C930D
:100EA0002BC061E0C601D8DD7C01D8018D919C91F9
:100EB000892B29F4F601628170E082E0BBDDD60166
:100EC00012968C91863061F4D701ED91FC910680E9
:100ED000F781E02DC7010995F801F182E0820CC08D
:100EE000D8018D919C91FC01F182E082EF50FF4F7F
:100EF0002FEF20830E949B1E2196E8E00C94A92FDF
:100F0000FF920F931F93CF93DF93EC012881622F01
:100F100070E06530710514F084E060C09981692F3C
:100F200070E06730710514F085E058C08A81682F41
:100F300070E0603171050CF050C0882321F08930D9
:100F400008F04FC006C0911102C02223E9F080E0F2
:100F500003C0211119C081E01F922F931F929F930C
:100F60001F928F9381E491E09F938F9387E08F93FB
:100F700085E48F93FDD58DB79EB70A960FB6F8948A
:100F80009EBF0FBE8DBF2BC0DFDEF82E0B81602F02
:100F90003FDD182F811116C01F920F931F92FF92F1
:100FA00022E431E03F932F9388E08F9385E48F9381
:100FB000DFD58DB79EB708960FB6F8949EBF0FBECB
:100FC0008DBF13C0023089F48C810E94C429892B03
:100FD00061F46C8170E089E001C086E02BDD10E0F7
:100FE00004C09111D1CF82E0B7CF812FCDB7DEB74A
:100FF000E5E00C94AC2FA1E1B0E0E1E0F8E00C9466
:101000008B2FA82E8B016A017901FB0182819CDE66
:10101000B82E80917102811104C06CE2C7010E9458
:10102000B724109271026BE7C7010E94B72421E038
:101030004A2D69E6C70186DD20E04B2D64E7C70134
:1010400081DD20E0F801408163E6C7017BDD20E01F
:10105000F801418162E6C70175DD20E0F8014281B7
:1010600066E6C7016FDD20E0F801438168E6C7014D
:1010700069DD20E0F801468164E6C70163DD20E018
:10108000F801448160E7C7015DDDC114D10469F056
:10109000F6018081882349F065E471E0C7010E9470
:1010A000B524B601C7010E94B524F80183818130BF
:1010B00029F420E0458168E7C70144DDF801838118
:1010C0008230B1F46BE471E0C7010E94B524AE0137
:1010D0004F5F5F4F68E0C8010796B7DDBE016F5FE5
:1010E0007F4FC7010E94B52462E2C7010E94B72466
:1010F000F80183818230D1F44785F0E24F02A001EC
:101100001124662757FD6095762F08E023E0CE0175
:1011100001960E94691C62E571E0C7010E94B52436
:10112000BE016F5F7F4FC7010E94B5246DE7C70105
:101130000E94B7246196EAE00C94A72FA4E2B0E0E5
:10114000E4EAF8E00C948F2F7C0162E18FE592E0F5
:1011500073D36FE572E08BEE95E00E948D12609183
:101160005F02613108F079C0CE01019625D342E1DA
:1011700050E0BE016F5F7F4FCE0143960E94203149
:101180008091600287FF8B8B8091610287FF8C8B3F
:101190008091620287FF8D8B8091630287FF8E8B27
:1011A0008091640287FF8F8B809168028F3F09F0E6
:1011B0008AA38091650287FF888F809169028F3FA3
:1011C00041F048E050E069E672E0CE014A960E94A4
:1011D00020318091670287FF898F8D89811104C03A
:1011E00062E1CE01439630D340915F02BE016F5F52
:1011F0007F4FCE01439684DE882391F0CE01019685
:10120000AEDDCE014396ABDDCE01439628DE609184
:101210005F02CE014396F0D28E010D5E1F4F10C0CB
:1012200041E551E05F934F9383E08F9385E48F9383
:101230009FD40F900F900F900F908E010F5F1F4F54
:1012400085E510D681E080937102970140E050E07F
:10125000B80180915F02CFDE00D6A496E6E00C9440
:10126000AB2FFB0123853485AB014F5F5F4FBC0182
:101270008081C1CE08958F929F92AF92BF92CF92FC
:10128000DF92EF92FF920F93CF93DF93CDB7DEB74C
:101290006D970FB6F894DEBF0FBECDBF7C014B013A
:1012A0005A016901FB018481882339F04DDDF70182
:1012B0006381AEDB882309F45BC0C7010ADDF60158
:1012C0008083118287FD07C0F4019381911150C082
:1012D000682FC70166DCF4018281882309F444C0C9
:1012E000F7018381823009F03FC04601FFEF8F1A7A
:1012F0009F0A8DE0F7013496DE01519601900D9220
:101300008A95E1F789890E94C42920E532E03A8371
:1013100029839C838B831E821D8281E0888B48E019
:1013200050E0BE016C5E7F4FCE0107960E942031D7
:101330001F86CE0101960E943C2E882329F0CE0103
:1013400001960E94CC2E02C080E090E8AC01662796
:1013500057FD6095762F09E023E0C4010E94441CEC
:10136000CE0101960E94D92DB601C701F50109955C
:101370006D960FB6F894DEBF0FBECDBFDF91CF9153
:101380000F91FF90EF90DF90CF90BF90AF909F9024
:101390008F900895A2E1B0E0E0EDF9E00C948B2F7E
:1013A0008C017B016A0162E1CE0101964DD281E0A0
:1013B0008C838983B12CAA24A3948B2D0E94CC29E1
:1013C00087FD10C0F80191819F3F11F0981308C06C
:1013D0008D83AE829601A701B801CE0101964BDF45
:1013E000B394EBCFB12C8B2D0E94D62987FD0FC073
:1013F000F80191819F3F11F0981307C08D839601EA
:10140000A701B801CE01019636DFB394ECCF629606
:10141000EAE00C94A72FA4E1B0E0E1E1FAE00C943B
:10142000882F7C016B015A01912C8824839442E01F
:10143000742E892D0E94DC29182F87FD3CC062E1A3
:10144000CE01019601D2F70181818F3F11F0811306
:1014500030C01D838982812F0E94C4298C0100978E
:1014600041F10E94EF21BE01685F7F4FC8010E94D9
:1014700000228823F1F08885883211F47C8201C033
:101480001C828C81823071F4B801CE0143960E9497
:10149000A72CBE01685F7F4FCE0143960E944F2D5F
:1014A0008111E1CF9501A601B701CE010196E3DEDE
:1014B000DACF9394BECF6496EDE00C94A42FEF9214
:1014C000FF920F931F93CF93DF93EC018B017A016F
:1014D00088818F3F41F0823031F088818F3F41F029
:1014E000813051F405C0A701B801CE0194DFF5CFDA
:1014F000A701B801CE014EDFCDB7DEB7E6E00C9410
:10150000AB2FA2E1B0E0E7E8FAE00C94912F8C0158
:10151000198A188A8FEF8F878E871A8ABE01625FB9
:101520007F4F81EC94E0F9D71D870C8781E0809391
:101530007102AE014F5F5F4F61E379E0CE010E961D
:10154000BEDF6296E4E00C94AD2FAF92BF92DF92C3
:10155000EF92FF920F931F93CF93DF931F92CDB71C
:10156000DEB78C017B015A01DB011296DC908D2DD8
:10157000EBDB282F882309F463C0C7012983CCDA69
:10158000FC012981009709F45BC0D80112963C91B7
:1015900037FD10C0233071F480819181DC01ED9121
:1015A000FC9161E0311101C060E00190F081E02D1B
:1015B000099546C0D80111968C91813009F040C040
:1015C000223049F480819181DC01ED91FC91019000
:1015D000F081E02D24C02130C1F480819181B6E0FA
:1015E000DB120E94981FDC01ED91FC910084F185D3
:1015F000E02D0995AC01662757FD6095762F09E02F
:1016000023E0C5010E94441C1BC02330C9F4808123
:101610009181DC01ED91FC910280F381E02D09952F
:101620001F928F9383E890E09F938F93BF92AF9226
:101630000E945B310F900F900F900F900F900F90C2
:101640000F90DF91CF911F910F91FF90EF90DF905E
:10165000BF90AF90089586EB91E0909378028093CD
:101660007702109279028EE291E090937502809356
:1016700074021092760288E891E09093730280934E
:1016800072020895B2C90895A0E2B0E0EAE4FBE076
:101690000C94902F8C0164E0CE014D96CDD018A211
:1016A000BE01635E7F4F8BED94E037D78D8D8E3F0B
:1016B00061F48F8D87FD31C061E0811101C060E070
:1016C0008EE593E00E94AC1F28C081E080937102F8
:1016D000F12C6F2DCE0101966FD08823F1F04F2DA4
:1016E000BE016F5F7F4FCE014D96DADA882399F005
:1016F0001B8AAE014D5E5F4FBE016F5F7F4FCE0113
:101700004D9623DF9801AE014D5E5F4FBE016F5FC6
:101710007F4F8F2D70DCF394DCCFA096E5E00C9426
:10172000AC2F80E090E00E94763391E0843009F0A5
:1017300090E0892F08950F931F93CF93DF93C0E01C
:10174000D0E060E0CE010E948D332196C11584E087
:10175000D807B9F76FDB0E9446170E946F1706E0A3
:1017600010E0C8010E94F416E801A89606591F4F20
:10177000CE010E94FC162B96C017D107C9F7CE3AAE
:1017800081E0D80711F08E01ECCF64E080E090E0BA
:101790000E948D330E94C014DF91CF911F910F9151
:1017A00008958EE290E00C94FC16089586E090E097
:1017B0000E94F416F6CF0895A1E0B0E0E2EEFBE05F
:1017C0000C94912F8C016983ACDF6981882311F01F
:1017D000603110F080E00CC082E1689FB0011124FC
:1017E00062557E4F42E150E0C8010E94663381E0BD
:1017F0002196E4E00C94AD2FA1E0B0E0E2E0FCE043
:101800000C94912F8C0169838CDF6981882311F0FE
:10181000603110F080E00CC082E1689FB0011124BB
:1018200062557E4F42E150E0C8010E947E3381E064
:101830002196E4E00C94AD2F2FEF615020F0FC01D5
:101840002193CF01FACF0895615020F0FC0111924D
:10185000CF01FACF0895A2E1B0E0E1E3FCE00C94FF
:10186000912F5FDF082F882331F1E4DA86E090E0E2
:101870000E943D178EE290E00E94891710E0612FD0
:10188000CE01019699DF8823B1F0412FBE016F5F31
:101890007F4FCB0135DB882321F0CE010196DFDAC3
:1018A00008C062E1CE010196CFDF612FCE01019623
:1018B000A3DF1F5FE4CF802F6296E4E00C94AD2F8E
:1018C000CF93DF93FC01EC01C45BDF4FDC01A35B32
:1018D000BF4F98E0908F82E0818F92AB83AB98836B
:1018E0008C93DF91CF910895FC01862F880F8C5F38
:1018F000808F618F82AB63ABDF01A45BBF4F8C93A2
:10190000E35BFF4F608308950F931F93CF93DF93A3
:101910008C01C0E0D0E0C8018C0F9D1F33D0AB011B
:10192000BC016A96CE34D105B1F7CB01BA01DF9183
:10193000CF911F910F910895AB01662757FD6095D8
:10194000762FBA0155274427DFCF0895805C9F4F3B
:10195000FC01608171818281938108950F931F93AF
:10196000CF93DF93EC018B01A1D0B801CE014A9651
:101970009DD0B801CE01C49699D0DF91CF911F912F
:101980000F910895A4E0B0E0E8ECFCE00C94832F04
:10199000FC0149835A836B837C8384809580A68075
:1019A000B78080869186A286B3864080518062800F
:1019B000738044825582668277824083518362833A
:1019C00073830089118922893389048B158B268BB7
:1019D000378BC484D584E684F784C08AD18AE28AAE
:1019E000F38A418DA08D2A2E312CC701B601601BD0
:1019F000710B820B930B6C0D7D1D8E1D9F1D042E94
:101A000004C0F594E794D794C7940A94D2F76C195C
:101A10007D098E099F096801790104C0F594E79456
:101A2000D794C7944A95D2F76C0D7D1D8E1D9F1DCE
:101A3000C980DA80EB80FC800A2E04C0F594E7941C
:101A4000D794C7940A94D2F76C0D7D1D8E1D9F1DEF
:101A5000A1014150510904C075946794579447946B
:101A60004A95D2F7640D751D861D971D04C0B59467
:101A7000A79497948794AA95D2F7680D791D8A1D2B
:101A80009B1DD101129704C0359527951795079591
:101A9000AA95D2F7601B710B820B930B6487758735
:101AA000868797872496E2E10C949F2FFC01AB0177
:101AB000662757FD6095762FBA0155274427408346
:101AC000518362837383448355836683778340871E
:101AD0005187628773874487558766877787408BEE
:101AE000518B628B738B448B558B668B778B0895F0
:101AF0000F931F93FC014089518962897389048582
:101B000015852685378504171507260737075CF4E2
:101B100084899589A689B789481759076A077B0779
:101B200014F0CB0102C080E090E81F910F9108955E
:101B30000F931F93FC014089518962897389048541
:101B400015852685378540175107620773075CF4B2
:101B500084899589A689B78984179507A607B70749
:101B600014F0CB0102C080E090E81F910F9108951E
:101B7000A9E0B0E0EEEBFDE00C94882FCB8CDC8C80
:101B800084E470D1698D83EA90E0CCD26A8D8DE9CE
:101B900090E07AD481E990E09F938F9344D18E01B5
:101BA000035E1F4F0F900F90712C88E9E82E80E0A4
:101BB000F82E96E8A92E90E0B92EF601E70DF11D5A
:101BC0008081882309F456C0863679F178F484360A
:101BD00009F042C0480182E0880E911CF801818121
:101BE0008F9380818F93BF92AF9230C08337A1F0E3
:101BF000843791F54801F2E08F0E911CF801408185
:101C00005181662757FD6095762F0CE021E0CE01CB
:101C100001960E94441C16C04801F2E08F0E911CF0
:101C2000F80181818F9380810EC04801F2E08F0E10
:101C3000911CF801608171812CE043E0CE01019696
:101C40000E94C51B9F938F93FF92EF92ECD00F9051
:101C50000F900F900F9084017394F601E70DF11D22
:101C60008081882309F4A9CF6CE28EED93E00E9475
:101C7000B724A3CF6DE58EED93E00E94B7240ED17B
:101C80002996EDE00C94A42FFC018081809337030A
:101C90000E949F208BCD08959C01CB01B9010E9429
:101CA000D71D811183CD08950F931F93CF93DF9399
:101CB000EB01162F13700E94E130FE01FF27EE0F9B
:101CC000FF1FE553FE4F0190F081E02D6083C3308C
:101CD00028F020916C0330916D0304C020916A03B9
:101CE00030916B03113059F030F0123059F4C901C2
:101CF0000E94931F07C0C9010E948A1F03C0C90127
:101D00000E948E1F53DDDF91CF911F910F91089597
:101D10009C01CB01B9010E941C1E811147CD089581
:101D20009C01CB01B9010E94FF1D81113FCD089597
:101D30009C01CB01B9010E946E1E811137CD08951F
:101D4000A1E0B0E0E6EAFEE00C94912F8B01BC012B
:101D5000CE0101960E94371E882321F08981F80167
:101D6000808324DD2196E4E00C94AD2FA6E0B0E062
:101D7000ECEBFEE00C948D2F7C016B01DF926F93F6
:101D8000FF928F9388EC91E09F938F938CE08F93D9
:101D900089E48F93EDDE0AE113E00FB6F894DEBF1D
:101DA0000FBECDBF46E050E0B801CE0101960E94C3
:101DB000073169817A81C7010E941031892B39F47A
:101DC0006B817C81ED81FE81C601099512C00A5F9D
:101DD0001F4F93E0083C190729F781E591E09F9395
:101DE0008F931F9287E58F93C3DE0F900F900F9014
:101DF0000F902696E8E00C94A92F80911401909101
:101E00001501DC01ED91FC910084F185E02D09952F
:101E1000089526E040E051EE60E070E08EED93E042
:101E20000C94FA230895A0E0B0E0E9E1FFE00C94FF
:101E3000932FFE013596419151919F0160E870E02A
:101E40008CE792E00E947A316CE772E08EED93E0CD
:101E50000E94B524E2E00C94AF2F8EED93E00C9439
:101E6000BF240895682F8EED93E00E94B7246AE3A3
:101E70008EED93E00E94B72481E08093FC020895E8
:101E8000F1DF6BE58EED93E00C94B72408956DE5DA
:101E90008EED93E00E94B724E0CF08956DE78EEDBC
:101EA00093E00E94B724D9CF0895A6E0B0E0EBE517
:101EB000FFE00C94902FF42E6D837E83D3DF6D8131
:101EC0007E81FF20C9F08B010C5F1F4F44E050E082
:101ED000CE0101960E940731EC81F0E0EE0FFF1F6A
:101EE000E952FE4F0190F081E02D6B8189819A814A
:101EF0000995FA94B801E5CFD1DF2696E5E00C9478
:101F0000AC2F87E393E090937B0280937A0248E1C1
:101F100064EF73E083E4C9CF089586E193E0909382
:101F20007B0280937A024BE068EC73E086E5BDCFDC
:101F30000895CF93DF93EC018091FC02882311F088
:101F40006BE701C06CE28EED93E00E94B724109223
:101F5000FC0262E28EED93E00E94B724DF93CF9300
:101F600062DF62E28EED93E00E94B7246AE38EEDB9
:101F700093E00E94B7240F900F90DF91CF910895C6
:101F8000CF93DF93EB01D5DF209719F083EB90E03F
:101F900002C08EEA90E0DF93CF939F938F9343DF4D
:101FA0000F900F900F900F90DF91CF910895EF92C7
:101FB000FF920F93CF93DF93CDB7DEB729970FB67C
:101FC000F894DEBF0FBECDBF7C01AB01662757FD85
:101FD0006095762F09E022E0CE0101960E94441C14
:101FE000C701A7DFBE016F5F7F4F8EED93E00E94B8
:101FF000B52429960FB6F894DEBF0FBECDBFDF9192
:10200000CF910F91FF90EF900895A2E0B0E0EBE048
:10201000F0E10C94932F69837A838BDF69817A8155
:102020008EED93E00E94B5242296E2E00C94AF2F4F
:10203000EF92FF920F93CF93DF93CDB7DEB72C973C
:102040000FB6F894DEBF0FBECDBF7C01E0917A02DF
:10205000F0917B02E60FF11D40815181662757FD0B
:102060006095762F0CE021E0CE0101960E94441C81
:10207000BC01C701CADF2C960FB6F894DEBF0FBEB5
:10208000CDBFDF91CF910F91FF90EF900895ACE01D
:10209000B0E0EDE4F0E10C94912F8C01E0917A0234
:1020A000F0917B02E60FF11D608171812CE043E02D
:1020B000CE0101960E94C51BBC01C801A6DF2C966B
:1020C000E4E00C94AD2FEF92FF920F93CF93DF9348
:1020D000CDB7DEB72C970FB6F894DEBF0FBECDBFDD
:1020E0007C01E0917A02F0917B02E60FF11D4081C4
:1020F0005181662757FD6095762F0CE023E0CE01D5
:1021000001960E94691CBC01C7017FDF2C960FB6A7
:10211000F894DEBF0FBECDBFDF91CF910F91FF903E
:10212000EF900895CF93C62F04DF62E28EED93E027
:102130000E94B7246C2F8EED93E00E94B72462E2D8
:102140008EED93E00E94B724CF9108950F93CF9323
:10215000DF93CDB7DEB72C970FB6F894DEBF0FBE76
:10216000CDBF83E57FDE60912E0385E193E0DADF6A
:1021700040912F0350913003662757FD6095762FCD
:102180000CE022E0CE0101960E94441CBC018DE0CF
:1021900093E03BDF4091310350913203662757FDB6
:1021A0006095762F22E0CE0101960E94441CBC016E
:1021B00083E093E02ADF60913303709134032CE0D5
:1021C00043E0CE0101960E94C51BBC018BEF92E05B
:1021D0001CDF60913503709136032CE043E0CE01A3
:1021E00001960E94C51BBC0183EF92E00EDF56DE14
:1021F0002C960FB6F894DEBF0FBECDBFDF91CF9106
:102200000F910895E0917A02F0917B02E60FF11DA3
:10221000608188CF0895CF93DF93EB018ADEDF934F
:10222000CF938BEA90E09F938F93FDDD0F900F90FB
:102230000F900F90DF91CF910895E0917A02F09185
:102240007B02E60FF11D60817181E5CF08950F9348
:102250001F93CF93DF938C01EB0184E503DE6DD6F2
:10226000BC0186EF90E0A3DE7AD6BC018EEE90E052
:102270009EDEB80186EE90E083DE76D6BC018BED63
:1022800090E095DE83D6BC0181ED90E090DEBE014A
:1022900087EC90E075DEB1DD80911401909115011D
:1022A000DC01ED91FC910480F581E02D099581110F
:1022B0000CC06091150370E088EB90E0ACDFEEDDC0
:1022C000DF91CF911F910F91089597DDBC018EEBA7
:1022D00090E06DDEEECF60E070E080E090E0B7CFA0
:1022E0000895A0E8B0E0E7E7F1E10C94932FFE0138
:1022F000EB57FF4F419151919F0160E870E0CE0193
:1023000001960E947A3160E070E0CE0101969FDF75
:10231000C058DF4FE2E00C94AF2FA2E0B0E0E3E959
:10232000F1E10C94912F8C01BC01CE0101960E9429
:10233000D71D882389F180912E03803799F4298154
:102340003A8180912F0390913003281B390B37FF7E
:1023500003C031952195310925363105D4F027E7A1
:1023600031E002C02EE831E02115310591F03F93B4
:102370002F931F930F9388E691E09F938F938CE4A4
:1023800091E09F938F93ADDF0FB6F894DEBF0FBE41
:10239000CDBF89819A81C5D72296E4E00C94AD2FF8
:1023A000A0E8B0E0E6EDF1E10C94932FFE01EB57CD
:1023B000FF4F419151919F0160E870E0CE0101967D
:1023C0000E947A31BE016F5F7F4F80E090E03FDF77
:1023D000C058DF4FE2E00C94AF2FCF93DF93EC01B6
:1023E00060E088815DD58EE891E09F938F93DF93C5
:1023F000CF9382E791E09F938F938CE491E09F933A
:102400008F93CEDF8DB79EB708960FB6F8949EBF18
:102410000FBE8DBFDF91CF910895A2E0B0E0E3E160
:10242000F2E10C94912F8C01BC01CE0101960E9427
:10243000D71D8823D9F080912E038636A1F48EE82B
:1024400091E09F938F931F930F938CE591E09F935F
:102450008F938CE491E09F938F93A2DF0FB6F89453
:10246000DEBF0FBECDBF89819A818AD72296E4E074
:102470000C94AD2FE0917A02F0917B02E60FF11DF2
:10248000608170E0C8CE089570E0C5CE0895CF9306
:10249000DF93C0E1D7E28EED93E00E94A522892B65
:1024A00051F484E690E00E9451252197209799F7F6
:1024B0008FEF9FEF04C08EED93E00E94BE22DF916C
:1024C000CF9108951F93CF93DF93EC01188210E012
:1024D000DEDF9C011D31B9F08D379105A1F02F3F52
:1024E0008FEF380781F02C32310579F02A3331052E
:1024F00061F0C9018D7F809759F3FE01E10FF11D55
:1025000020831F5FE5CF80E001C081E0C10FD11DB6
:102510001882DF91CF911F910895ACE3B0E0E3E919
:10252000F2E10C948E2F8C017B011F8E1982AFDF9C
:102530008B379105C1F09F938F9383E491E09F9334
:102540008F938AE08F9385E48F9312DB0F900F9027
:102550000F900F900F900F901CC0D12C898181118A
:102560000CC0DD20B1F0CE014F96ACDF8823A9F37B
:10257000CE010196A7DFD82EF1CF8F8D882389F366
:10258000A701BE016F5F7F4FCE014F96F8010995FD
:10259000E8CFEC96E7E00C94AA2F60E070E086EBC1
:1025A0009EE0BBDFD3DDADCC0895A5E1B0E0EBED5F
:1025B000F2E10C94832F23E4422E21E0522E3324A7
:1025C0003394CE0101967C013FEFC32E30E0D32E31
:1025D00041E4A42E41E0B42E5AE3852E51E0952E1D
:1025E00064E0662E61E0762E01E511E08EED93E069
:1025F0000E94A522181619060CF0F2C08EED93E089
:102600000E94BE2299278535910509F4CDC0C4F5F5
:102610008334910509F484C094F48D30910531F32D
:1026200024F48A30910511F3CCC080329105F1F287
:102630008134910509F0C5C030925C02D7CF863451
:10264000910509F4BBC074F48534910509F0B9C053
:1026500072D81F930F938FE08F9389E48F9388DA5A
:1026600023D169C08235910509F4A5C08335910550
:1026700009F0A7C034D46ADD1F930F938EE057C0D2
:102680008A36910509F487C0DCF48336910509F494
:1026900059C03CF48136910509F093C010925C0258
:1026A000A5CF8436910509F478C08836910509F0E4
:1026B00088C088E6E5DB8EED93E00E94810A79C050
:1026C0008337910509F43CC004F58C36910509F473
:1026D0003BC08E36910509F074C01F923F921F9245
:1026E00093E79F931F921F921F9282E08F93BF9256
:1026F000AF929F928F927F926F9295DBAEDB0FB677
:10270000F894DEBF0FBECDBF71CF8437910531F095
:102710008637910509F055C000DC68CFDCDD66CF57
:10272000B5D30E949F20EDDB1F930F938DE08F9315
:1027300089E48F931DDA0F900F900F900F9056CF72
:1027400005DD54CFDEDB52CF8CE48CDB6BE58EED08
:1027500093E00E94B724212CA701622D8EE693E01E
:102760000E942C2CFF92EF92DF92CF925CDB0F90B5
:102770000F900F900F9093E0291611F06CE201C0BA
:102780006DE58EED93E00E94B724239484E0281237
:10279000E3CF63DB2BCF01DF29CF84E671DB8EED46
:1027A00093E00E94440B05C08EED93E00E949E08CA
:1027B0001DCF6DDB1BCF0E940E2718CF0E94112763
:1027C00015CF9F938F935F924F923F9297E59F9380
:1027D000CFD90F900F900F900F900F900F9006CFC2
:1027E0006596E2E10C949F2F660F682B90915B0336
:1027F000E62FF0E08091FF028F70992341F094E082
:10280000899FE00DF11D1124E059FB4F07C094E0B2
:10281000899FE00DF11D1124EC5AFB4FE491E093E8
:10282000FF028091FF02807321F12091010330911A
:102830000203803119F42F5F3F4F02C0215031094C
:102840008091050390910603409103035091040386
:102850008217930714F4CA0104C0241735070CF03B
:10286000C90190930203809301038EE693E00C94D8
:102870001F2C089581E0809300038EE693E00C9472
:102880001F2C08950E94642A2091FD023091FE02BF
:102890008217930731F09093FE028093FD0281E04E
:1028A00008958091000308950E942B0C811111C09E
:1028B00016D3ECD20E941A0781E591E09F938F9383
:1028C00083E08F9387E58F9353D90F900F900F90EC
:1028D0000F900895009741F0DC01ED91FC91048088
:1028E000F581E02D0995089580E00895681779072E
:1028F00068F4861B970B2091080330910903281771
:10290000390720F4909309038093080308951092E7
:102910001403109213030895CF93DF93EC010E94E8
:10292000E91E88819981D6DF811103C0CE010E9402
:102930009B1EDF91CF91089580916C0390916D0360
:10294000EBDF80916A0390916B03E6DF80911401C5
:1029500090911501DC01ED91FC910084F185E02D51
:1029600009958115904859F48091140190911501B1
:10297000DC01ED91FC910680F781E02D0995089529
:10298000CF93DF93109215038FE680932E0360E0C0
:102990008EE593E00E94AC1F80916C0390916D03D3
:1029A000892B21F582EF90E00E94D124EC01029660
:1029B0000E94600CCE01805B9F4F0E94600CCE0194
:1029C00082569F4F0E94600CFE01E451FF4F2FEF93
:1029D000208382E792E09983888335962083D09381
:1029E0006D03C0936C03CE010E949B1E80916A030D
:1029F00090916B03892B21F582EF90E00E94D12406
:102A0000EC0102960E94600CCE01805B9F4F0E94F9
:102A1000600CCE0182569F4F0E94600CFE01E45173
:102A2000FF4F2FEF208382E792E0998388833596CA
:102A30002083D0936B03C0936A03CE010E949B1E38
:102A40007BDF65DF10920D0310920C0310920B03D5
:102A500010920A03DF91CF910895A0E0B0E0E3E384
:102A6000F5E10C948D2F80912E03823661F0803732
:102A700051F0863609F04BC181E090E89093300325
:102A800080932F0344C120912F0330913003C9015B
:102A90009058029718F481E090E835C180916C035A
:102AA00090916D03FC01EC57FF4F44855585668579
:102AB0007785261B370B30931703209316030E944C
:102AC0007B1F90931D0380931C0380916A03909158
:102AD0006B030E94751FDC01809107032091160390
:102AE000309117038C3321F08F5F8093070389C0E7
:102AF00010920703C901E09115034091180350910A
:102B0000190360911A0370911B03E11168C0F90168
:102B100037FF04C0EE27FF27E21BF30BC0914203EF
:102B2000D0914303EC17FD070CF047C0DD24D3948C
:102B3000121613060CF0D12CE1E014161506160639
:102B400017060CF0E0E0DE1234C0E0913103F091A2
:102B50003203C0913A03D0913B03EC17FD0714F008
:102B600080E090E0C0913803D0913903CE17DF07A1
:102B700014F080E090E000912F0310913003C09199
:102B80005C03D0915D037F01E01AF10AEC16FD06AB
:102B900014F080E090E00E1B1F0B0C171D0714F0C3
:102BA00080E090E0D11017C0FC5FEA17FB07CCF47F
:102BB00016C0C901880F991F14C06A017B0183E008
:102BC000F594E794D794C7948A95D1F788279927E5
:102BD0008C199D0906C0F450AE17BF0714F480E0AD
:102BE00090E0AA2797FDA095BA2F840F951FA61FE6
:102BF000B71F8093180390931903A0931A03B093FF
:102C00001B03B90180913C0390913D03F9D6909349
:102C10001F0380931E034091180350911903609184
:102C20001A0370911B0380913E0390913F03DAD603
:102C3000909321038093200360911C0370911D03E6
:102C40008091400390914103DBD6909323038093BE
:102C5000220320912F03309130036901EE24D7FC29
:102C6000E094FE2C40911E0350911F03662757FDF0
:102C70006095762FC40ED51EE61EF71E40912003E8
:102C800050912103662757FD6095762FC40ED51EFF
:102C9000E61EF71EAA2797FDA095BA2FC80ED91ECB
:102CA000EA1EFB1E009138031091390380915C03EA
:102CB00090915D03A801480F591F421753071CF458
:102CC0008901081B190BC0913A03D0913B03AE0157
:102CD000481B590B241735071CF4E901C80FD91FED
:102CE000C701B60133D68017910754F0C701B6016A
:102CF0002DD6C817D90734F0C701B60127D603C0AF
:102D0000C80101C0CE019093320380933103CDB747
:102D1000DEB7E8E00C94A92FCF93DF93EC0177FFA7
:102D200003C0719561957109F5E075956795FA9500
:102D3000E1F7882777FD8095982F2AE930E040E079
:102D400050E035D6688179818A599D4F59D68931AD
:102D5000910514F489E190E0998388830E94D10B56
:102D6000DF91CF910895CF93DF93EC0177FF03C0FC
:102D7000719561957109A5E075956795AA95E1F73B
:102D8000882777FD8095982F25E530E040E050E0DA
:102D90000ED6688179812AEA31E0A901481B590BD6
:102DA000CA012ED6998388830E94D10BDF91CF91DF
:102DB000089560910A0370910B038EE592E00C94E4
:102DC000E22E089560910C0370910D038EE592E060
:102DD0000C94E22E089560910E0370910F038EE51E
:102DE00092E00C94E22E089547E250E0BC0187E3A4
:102DF00093E00C947E33089549E050E0BC018EE2EC
:102E000093E00E947E3380912F0390913003909342
:102E100011038093100308956091540380916A0315
:102E200090916B030E948A1F6091550380916A0301
:102E300090916B030E948E1F6091560380916A03EC
:102E400090916B030E94931F6091570380916C03D4
:102E500090916D030E948A1F6091580380916C03CA
:102E600090916D030E948E1F6091590380916C03B5
:102E700090916D030C94931F089547E250E0BC01BC
:102E800087E393E00E946633C7CF089547E250E09E
:102E900069EA74E087E393E00E940731BDCF0895AB
:102EA00090912E03891305C090911503955093308E
:102EB00018F41092150302C0662381F080932E034C
:102EC0008F3651F481E090E89093300380932F0384
:102ED00090933203809331030C94D10B089560E0FA
:102EE0008FE6DEDF81E090E89093300380932F033C
:102EF000909332038093310386E690E090933403FD
:102F00008093330380E09AE09093360380933503F7
:102F1000089549E050E0BC018EE293E00E946633E0
:102F200080912F03909130039093110380931003AD
:102F300061E080912E03B4CF0895E0916C03F0918D
:102F40006D0380819181C6DC882331F080916C0310
:102F500090916D03CAC7089580E090E8089580912C
:102F60002F03909130030895E0916A03F0916B0371
:102F700080819181AFDC882331F080916A03909148
:102F80006B03B3C7089580E090E808958091310302
:102F90009091320308959091150381E0943021F0CF
:102FA000983011F080E008950895A4E0B0E0EBEDD2
:102FB000F7E10C94912F4817590708F4CA019C01B6
:102FC000DB010E946D2F20E13EE040E050E00E94D6
:102FD000362F890129833A834B835C83DCDF298187
:102FE0003A81882321F000271127021B130B8091BF
:102FF0006A0390916B0379D7800F911F90932503FB
:10300000809324032496E4E00C94AD2FA0E0B0E07C
:10301000ECE0F8E10C948A2F80910A0190910B0169
:10302000DC01ED91FC910190F081E02D09959091EA
:1030300012038917A1F080931203882319F082EA02
:1030400094E002C08BE994E09F938F938CE894E026
:103050009F938F93A5D90F900F900F900F90809111
:103060002E038F3631F481E08093150399249394D5
:1030700001C0912C809131039091320390580297B6
:1030800008F445C1E0916A03F0916B03808191815E
:1030900021DC882309F43BC1E0916C03F0916D03BE
:1030A0008081918117DC811108C080912E038236C6
:1030B00009F42DC1803709F42AC18DDEEC0179DED7
:1030C0007C0180DE6C0180916A0390916B030DD7C7
:1030D0005C0180916C0390916D0307D78C018EE5A4
:1030E00092E00E94F22E4091150350E04A305105C3
:1030F00008F012C1FA01EC5CFF4F0C94522F909330
:103100000F0380930E03911007C1109209031092D0
:103110000803209131033091320380914403909150
:103120004503820F931F8A159B055CF5B60188E560
:1031300092E0DCDB80912E03863621F4B70188E52E
:1031400092E00CC080912F03909130030F9680176E
:1031500091070CF0D5C0B7018CE291E0C7DB8091FC
:103160001001909111018457924009F447C0809159
:10317000080390910903892B11F085E03AC084E09F
:1031800038C08091460390914703820F931FA81681
:10319000B9060CF0B5C0B70188E592E0A7DBB6012F
:1031A0008CE291E0A3DB80912E03863649F080917A
:1031B0002F03909130030F97081719070CF0A0C048
:1031C00080911201909113018457924059F480919B
:1031D0005A03882399F080910E0190910F01845732
:1031E000924061F08091080390910903892B21F0AE
:1031F00086E08093150302C083E0FBCF8091150326
:103200008350823008F088C080911303882321F016
:10321000B70188E097E008C080911403882309F47F
:103220007BC0B60184E893E061DB87E06DC021E0FC
:103230002093130390930B0380930A03609135034B
:1032400070913603AE018091520390915303ADDE2D
:1032500084E080931503209124033091250380910D
:103260003103909132038217930774F480912E03F7
:10327000863609F451C080912F0390913003409716
:10328000081719070CF048C0C53BD10528F030934A
:1032900027032093260334C088E036C021E0209322
:1032A000140390930D0380930C036091330370918A
:1032B0003403AE01809150039091510376DE83E098
:1032C00080931503209124033091250380913103CD
:1032D000909132032817390764F480912E038636C3
:1032E000D9F080912F039091300340968017910779
:1032F0009CF4C53BD10538F0309329032093280373
:103300001092150309C089E08093150305C010923F
:10331000150399249394D1CECDB7DEB7EBE00C948E
:10332000A62FCF93DF93EC0120912F033091300330
:103330009093300380932F03281B390B37FF03C072
:10334000319521953109213031400CF0E0DA85DBEF
:103350005DDE80912E03803771F42091100330914F
:1033600011032C1B3D0B37FF03C03195219531090B
:103370002138310514F00E94D10BDF91CF910895CF
:103380009093320380933103C2DA67DB3FDE0C9403
:10339000D10B08959091150381E0933021F099307D
:1033A00011F080E008950895CF93DF9380912E036C
:1033B000843709F449C08EE593E0E9D5EBDFC82FE7
:1033C000EADDD82F8091100190911101DC01ED917F
:1033D000FC910190F081E02D6D2F099580911201F3
:1033E00090911301DC01ED91FC910190F081E02DB1
:1033F0006C2F0995A0910E01B0910F01ED91FC91F8
:1034000011970190F081E02D80911203811109C084
:1034100080915A03882311F0C11103C060916903A0
:1034200001C061E0CD01099580910C0190910D01E1
:10343000DC01ED91FC910190F081E02DCC2311F0A5
:1034400061E001C06D2F0995DF91CF910895A0E053
:10345000B0E0EDE2FAE10C948D2F80911403882303
:1034600019F098DF882349F080911303882309F429
:10347000D8C091DD8111D5C05EC080916A03909162
:103480006B033ED5EC0100912803109129037C01C8
:10349000E01AF10AC0903303D0903403C11580E8DC
:1034A000D807B9F080914803909149038E159F0584
:1034B00024F4B70183E393E02FDC80914A039091D9
:1034C0004B03E816F9065CF5B70183E393E04BDCA8
:1034D00026C078DC8538934008F4A3C080916A0345
:1034E00090916B0302D520912803309129034091DC
:1034F0004A0350914B03240F351F8217930764F43E
:1035000080916A0390916B03F0D4EC01B70183E3DF
:1035100093E029DC23E104C01092140382C021E16E
:103520008091330390913403D0932D03C0932C03E7
:10353000109214035DC080916A0390916B03E5D4EF
:10354000EC0100912603109127037C01E01AF10A97
:10355000C0903503D0903603C11590E8D907B9F073
:1035600080914E0390914F03E816F90624F4B701B9
:1035700085E393E0D1DB80914C0390914D038E1550
:103580009F055CF5B70185E393E0EDDB26C011DC18
:103590008930974008F445C080916A0390916B038D
:1035A000A4D4209126033091270340914C035091DD
:1035B0004D03240F351F2817390764F480916A03DF
:1035C00090916B0392D4EC01B70185E393E0CBDBE0
:1035D00024E104C01092130324C022E1809135033A
:1035E00090913603D0932B03C0932A0310921303B8
:1035F0009F938F93DF92CF921F930F93DF93CF937D
:1036000083EE91E09F938F932F9389E48F930E9491
:10361000B80D8DB79EB70C960FB6F8949EBF0FBE2F
:103620008DBFCDB7DEB7E8E00C94A92FE7E6F3E055
:103630008EE291E091838083109269038CEE91E099
:1036400090935F0380935E0388E592E09093630319
:1036500080936203F0936503E0936403089582E22C
:1036600091E090935F0380935E039093680380934F
:1036700067030895A0E0B0E0E0E4FBE10C94932F31
:103680009E01255F3F4F49855A856F8178858D81E1
:103690009E810E947A31E2E00C94AF2F8F929F922C
:1036A000AF92BF92DF92EF92FF920F931F93CF934F
:1036B000DF93EC01D02E77FD03C080E2888309C040
:1036C0008DE2888370956095509541955F4F6F4F5F
:1036D0007F4F4A015B0139E0B594A7949794879492
:1036E0003A95D1F77401213039F0223051F008EECB
:1036F00013E0E0EEF4E009C00AE010E0E0EFF4E0EF
:1037000004C004E610E0E8EEF4E09A01AB01317089
:1037100044275527D8010E94732F7F5F8F4F9F4FFB
:1037200029E095958795779567952A95D1F7601744
:10373000710730F074018FEFE81AF80A60E070E06A
:103740007F936F93FF92EF92FF93EF938D2D90E015
:1037500001979F938F93CE0101969F938F938ADF5A
:103760008DB79EB70A960FB6F8949EBF0FBE8DBF59
:10377000CE01DF91CF911F910F91FF90EF90DF90DD
:10378000BF90AF909F908F9008950F93342FAB010F
:10379000662757FD6095762F022F232F7FDF0F912D
:1037A0000895FB012081322F3F7D11F02E3239F434
:1037B00021E08617970709F020E0822F089581E025
:1037C00008950F931F93CF93C42F2091370326346E
:1037D00009F5442319F070548109910997FF02C03B
:1037E00003ED01C00DE2A2E3B0E09B01AC010E9439
:1037F000732F112707FD1095212F312F600F711F97
:10380000821F931F2AE530E040E050E00E94362FEF
:10381000CA01B901CC2319F0705681099109CF91E1
:103820001F910F9108950F931F9320913703263412
:1038300019F5442321F062577C478F4F9F4F97FF24
:1038400002C007EE01C009E1AAE5B0E09B01AC01AE
:103850000E94732F112707FD1095212F312F600F24
:10386000711F821F931F22E330E040E050E00E946E
:10387000362FCA01B90105C0442319F0705A8F4F81
:103880009F4F1F910F910895EF92FF920F93CF9347
:10389000DF931F92CDB7DEB77C01CB01BA01505840
:1038A0004230510538F468EF74E0C7010E941931C5
:1038B000C70108C041E02983B6DFAB01BC01298103
:1038C000C701ECDE0F90DF91CF910F91FF90EF9049
:1038D0000895EF92FF920F93CF93DF931F92CDB78E
:1038E000DEB77C01CB01BA0140E029839CDFAB014C
:1038F000BC012981C701D2DE0F90DF91CF910F91DA
:10390000FF90EF9008950F931F9341E08CDF9B0190
:10391000AC0197FF03C000E01FEF02C000E011E020
:10392000AAE0B0E00E94732F222717FD2095322FC6
:10393000600F711F821F931F20E032E040E050E0D3
:103940000E94362FC9011F910F910895623020E81F
:1039500072072FEF8207920744F0611520E8720783
:10396000810591052CF4CB01089582E090E808953B
:103970008FEF9FE70895BC01882777FD8095982FEA
:1039800049E0660F771F881F991F4A95D1F76B5F33
:103990007F4F8F4F9F4F2AE030E040E050E00E9481
:1039A000362FCA01B90141E00CDFD0CF0895A0E065
:1039B000B0E0EDEDFCE10C948D2F6B017C01EA0190
:1039C0008901C4DF8C179D072CF00817190724F014
:1039D000C60103C0CE0101C0C801CDB7DEB7E8E023
:1039E0000C94A92FDC019A01AB010E947D2FE9E024
:1039F0009595879577956795EA95D1F7A7CF08951F
:103A00009C01DB010E94582FA9E095958795779539
:103A10006795AA95D1F79ACF0895A0E0B0E0E3E1C9
:103A2000FDE10C948D2F8C01FB0191838083C0E01C
:103A3000D0E0DD24D39420E030E0A901E080F180E3
:103A4000D701CC90CC2039F1B0E2CB1203C0209743
:103A5000E1F025C08DE2C816B9F080ED8C0D8A30FA
:103A6000D0F4AAE0B0E00E94732F9B01AC018C2D32
:103A700090E0C097AA2797FDA095BA2F280F391F6D
:103A80004A1F5B1F219601C0D12CAFEFEA1AFA0A38
:103A9000F182E082D3CFCD2B11F411830083D110BA
:103AA00008C066277727CB01621B730B840B950B2D
:103AB00002C0CA01B901CDB7DEB7E8E00C94A92F66
:103AC000A2E0B0E0E6E6FDE10C94832F6C018B01EF
:103AD0006DE270E0C8010E9429311C01BE016F5FD8
:103AE0007F4FC8019ADF2B013C0169817A81C801AF
:103AF00058DE882311F080E056C06EE270E0C80105
:103B00000E942931009789F18C010F5F1F4FBE0180
:103B10006F5F7F4FC80181DF4B015C01E980FA8054
:103B2000B701C8013EDE8111E6CFA501940119E07D
:103B3000220F331F441F551F1A95D1F7E01A00E0DA
:103B400010E08AE0882E912CA12CB12CE01681F097
:103B5000CA01B9016B5F7F4F8F4F9F4FA501940141
:103B60000E94362F0F5F1F4FF1CF20E030E0A901F8
:103B7000B9E0440C551C661C771CBA95D1F7D301EB
:103B8000C2012114310429F4820F931FA41FB51F11
:103B900004C0821B930BA40BB50BF60180839183A9
:103BA000A283B38381E02296E2E10C949F2FA4E0EC
:103BB000B0E0EDEDFDE10C948F2F8C017B018BEDDE
:103BC00094E00E943431892B19F481E090E80DC013
:103BD000B701CE01019674DF882361F069817A8193
:103BE0008B819C8141E0EDDDB1DEF8019183808322
:103BF00081E001C080E02496E6E00C94AB2FA4E0C5
:103C0000B0E0E5E0FEE10C94912F8C01CE0101962D
:103C100057DF882361F069817A818B819C8140E044
:103C2000D0DD94DEF8019183808381E001C080E0E3
:103C30002496E4E00C94AD2FA4E0B0E0E2E2FEE1D3
:103C40000C94912F8C01CE0101963ADF882351F01C
:103C500069817A818B819C8179DEF80191838083EF
:103C600081E001C080E02496E4E00C94AD2FA2E056
:103C7000B0E0EDE3FEE10C948B2F5C018B0186ED4F
:103C800094E00E943431892B21F481E0F501808396
:103C900021C0B80180ED94E00E943431892B19F4E1
:103CA000F501108214C0BE016F5F7F4FC801B5DE01
:103CB0006B017C0169817A81C80173DD811109C0C2
:103CC000F1E0FC1530F08C2D8170F501808381E0EE
:103CD00001C080E02296EAE00C94A72FA2E0B0E0B9
:103CE000E4E7FEE10C948B2F8C015B01BE016F5F5A
:103CF0007F4FC50192DE6B017C0169817A81C5012C
:103D000050DD811113C0C114D10481E0E806F10433
:103D100034F08FEF9FEFF8019183808305C0F7FCAB
:103D200005C0F801D182C08281E001C080E0229606
:103D3000EAE00C94A72FA0E0B0E0E1EAFEE10C94E9
:103D40008D2FEC01888199810097F1F1DC01ED91D3
:103D5000FC910680F781E02D09958823A9F17E0169
:103D6000B1EFEB0EF11CF70180818D3368F1888192
:103D70009981DC01ED91FC910084F185E02D09959C
:103D80008C018115B0E89B07F9F0B801CE010296CD
:103D90000E94AE0C6E01F0E5CF0ED11CB801C60139
:103DA0000E94AE0C60E070E0CE0182569F4F0E94F0
:103DB000AE0CC6010E94A60CC351DF4F6883798305
:103DC0008A839B83D7011C92CDB7DEB7E8E00C94C1
:103DD000A92F8F929F92AF92BF92EF92FF920F9373
:103DE0001F93CF93DF93EC0188819981009709F4A9
:103DF0006AC0DC01ED91FC910084F185E02D09950C
:103E00008C018115B0E89B0709F45DC0BC01CE01AF
:103E100002960E949C0C7E01F0E5EF0EF11CB801A9
:103E2000C7010E949C0C8E0104511F4FD8018C9138
:103E300081508C93843051F4C7010E94A60CFE017E
:103E4000E351FF4F6083718382839383F801808104
:103E5000811140C0C7010E94A60C4B015C017E018C
:103E6000FDEEEF0EF11CF70180819181A281B381FB
:103E7000A5019401281B390B4A0B5B0B4C315105F2
:103E80004CF4453EFFEF5F074CF420E030E045EE98
:103E90005FEF04C020E030E04BE150E0A0EBB4E085
:103EA0000E94732FAB01BC01CE0182569F4F0E942E
:103EB000840CD7018D929D92AD92BC92139783E0B2
:103EC000F801808307C0CF50DF4F88818F3F11F00A
:103ED0008F5F8883DF91CF911F910F91FF90EF90BB
:103EE000BF90AF909F908F9008958E5B9F4FFC0185
:103EF00082819381089582569F4F0C94A60C089559
:103F00008C579F4F0C94780D08958C579F4F0C94AD
:103F1000980D089502960C94740C0895805B9F4F41
:103F20000C94740C089582569F4F0C94740C089551
:103F3000FC01808191810895FC018085089522E231
:103F400031E0FC0131832083089522E231E0FC015D
:103F50003183208329C508951F93CF93DF93EC010C
:103F6000162F68878E819F81DC01ED91FC91019075
:103F7000F081E02D0995112331F08EE592E00E9449
:103F8000F22E9B838A83DF91CF911F910895CF9367
:103F9000DF93EC016A817B818EE592E00E94E22E44
:103FA0002C813D818217930740F0E881F9810190CF
:103FB000F081E02D60E0CE010995DF91CF91089569
:103FC000A5E1B0E0E6EEFFE10C94912F8C01CE016B
:103FD00001960E941931BE016F5F7F4FC801C5D4A1
:103FE0006596E4E00C94AD2F8FEF8093D40382E0CC
:103FF0008093D3038EE693E00E94162C20E044E0E9
:1040000064E18EE693E00E94C52B8EE693E00C946B
:104010004B2B0895A9E0B0E0E0E1F0E20C94912F81
:10402000AC019058029730F46EE775E08EE693E0AD
:10403000C7DF1FC0662757FD6095762F09E021E096
:10404000CE01019621DCCE0101960E943D3115E0A2
:10405000181B00E001173CF460E28EE693E00E943A
:10406000AF2B0F5FF7CFBE016F5F7F4F8EE693E000
:104070007CD42996E4E00C94AD2FCF93DF93EA0132
:10408000462F682F8EE693E00E94822BCE01C2DF7E
:10409000DF91CF9108950E949D17AC0161E086E009
:1040A000ECCF08950E94AF17AC0161E08CE0E5CF42
:1040B00008958091D30380FF0CC0809114019091EA
:1040C0001501DC01ED91FC910084F185E02D09954D
:1040D00002C00E94B417AC0162E086E0CECF089522
:1040E0000E94C6172091D30320FF02C081E090E810
:1040F000AC0162E08CE0C1CF0895462F682F8EE6B8
:1041000093E00E94822B6FED8EE693E00E94AF2B2E
:10411000609137038EE693E00C94AF2B0895CF9314
:10412000DF93EA01462F682F8EE693E00E94822BF0
:10413000BE018EE693E044DFDF91CF91089549E719
:1041400055E060E080E0EBDF4AEB55E061E080E0C5
:10415000E6DF8091D30380FF03C042E755E002C051
:1041600042EB55E062E080E0DADF61E082E1C5DF4A
:1041700062E082E1C2CF08958091D30381FF21C024
:104180008EE592E00E94F22E83FD0CC08091140116
:1041900090911501DC01ED91FC910480F581E02DF9
:1041A000099501C080E09091D303292F21708217D7
:1041B00041F0882311F0916001C09E7F9093D3035A
:1041C000BEDF69DF6FDF75DF8BCF08958093D30388
:1041D000B6DFD2CF0895CF93DF93EA01462F682F41
:1041E0008EE693E00E94822BBE018EE693E0BDD363
:1041F000DF91CF91089540E067E08EE693E00E9462
:10420000822B80912E038F36F9F038F4823661F0DC
:104210008636E9F462EB75E009C0803769F08437CF
:10422000B1F468E575E015C06AEB75E08EE693E0E1
:10423000C7DE6BEA75E00DC06AEB75E08EE693E0D1
:10424000BFDE6AE675E005C066E675E002C06BE4B5
:1042500075E08EE693E0B4DE8EE693E00C94512C8C
:104260000895ABE0B0E0E7E3F1E20C948F2F80918A
:104270001203811103C02091150301C022E0809137
:10428000D403281721F12093D4032A3078F4822F05
:1042900090E0880F991FFC01E85FFD4F408151813C
:1042A000FC01EC50FE4F0081118104C004E815E0D0
:1042B0004AE055E063E080E02B8731DFB8018EE60D
:1042C00093E07EDE8EE693E00E94512C2B852B87B7
:1042D0000E94EB162B8521110EC00E94D9168C016D
:1042E0000E94E2160817190718F40E94D91619C07F
:1042F0000E94E21616C03DEF320F323090F02830A7
:1043000011F0293039F424EB30E0A901481B590B96
:10431000CA0107C025502230B8F58091080390915A
:1043200009038F3F5FEF950779F1ECE3F0E0BF0100
:104330000E94002F9C01CB01BF010E94002F7B0136
:104340003F932F939F938F93FF926F938DEF94E002
:104350009F938F938E010F5F1F4F1F930F930E94A8
:104360005B310FB6F894DEBF0FBECDBFE114F10490
:1043700029F40297AE014D5F5F4F01C0A80163E0D1
:1043800094E1981B892F27DF2B96E6E00C94AB2F46
:104390008EE693E00C94E12A089585E492E09093F0
:1043A0006F0380936E030895FF920F931F93CF9333
:1043B000DF938B01EC012B9640E065E5CE018BD7B6
:1043C00088E0F82EF80161918F0140E0CE0183D79B
:1043D000FA94C1F7CDB7DEB7E5E00C94AC2FFC0141
:1043E00010861286118627E030E0DF01A20FB31F8E
:1043F0001C922115310519F021503109F6CF08958D
:10440000A3E0B0E0E6E0F2E20C94882F8C016B01AF
:10441000FC018285811167C07801FBE0EF0EF11C81
:10442000C701D2D6811105C0F80110861286118607
:1044300071C040E060EFC7014ED7AA24A394912C2D
:10444000812CBB24B39477247394F8018085B8162B
:1044500038F4E90DF11D80818A2121F0798203C0B1
:10446000B816E1F319829E012E5F3F4FAE014D5FFA
:104470005F4FBE016F5F7F4FC70161D79B818A810C
:10448000992319F0882361F024C0811109C0898122
:10449000811106C0F8E0FB1510F0F801B1868B2CF5
:1044A0008981A92DB0E0A00FB11F813019F48C9142
:1044B0008A2904C08C919A2D909589238C93B3946A
:1044C000AA0C19F49394AA24A394F7E0F91508F020
:1044D000BCCF80E48B1538F4F8018086811014C0BD
:1044E00081E0828711C0F80110861286118680E073
:1044F000D801F60120E030E09D9191932F5F3F4F6E
:1045000028303105C9F706C0F8018081882359F3A6
:1045100081E0EECF2396EDE00C94A42FFC0180E027
:104520005CE8615088F0419198E0742F7827282F3B
:1045300030E035952795822F70FF02C0852F8227A6
:104540004695915091F7EDCF0895FC01818D228D14
:1045500090E0805C9F4F821B91098F73992708958B
:10456000FC01918D828D981731F0828DE80FF11D3D
:10457000858D90E008958FEF9FEF0895FC01918D58
:10458000828D981761F0828DDF01A80FB11D5D96B5
:104590008C91928D9F5F9F73928F90E008958FEF23
:1045A0009FEF08958EED93E0D0DF21E0892B09F491
:1045B00020E0822F0895A0E0B0E0E1EEF2E20C945A
:1045C0008D2F6C017A01EB01E60EF71E00E010E082
:1045D000CE15DF0561F06991D601ED91FC91019056
:1045E000F081E02DC6010995080F191FF1CFC80110
:1045F000CDB7DEB7E8E00C94A92F833081F028F422
:10460000813099F08230A1F008958730A9F0883088
:10461000B9F08430D1F4809180008F7D03C0809107
:1046200080008F7780938000089584B58F7702C0D3
:1046300084B58F7D84BD08958091B0008F7703C0CD
:104640008091B0008F7D8093B0000895A2E0B0E02B
:10465000ECE2F3E20C94912F8C016115710589F065
:10466000CB0169837A830E943D31D801ED91FC91A1
:104670000280F381E02DAC0169817A81C80109953E
:1046800002C080E090E02296E4E00C94AD2F82ED31
:1046900092E2892B41F080E090E0892B21F082DFCB
:1046A00081110E9400000895FC01848DDF01A80F94
:1046B000B11DA35ABF4F2C91848D90E001968F734A
:1046C0009927848FA689B7892C93A089B1898C9169
:1046D00080648C93938D848D981306C00288F3892F
:1046E000E02D80818F7D80830895CF93DF93EC014F
:1046F000888D8823C1F0EA89FB89808185FD05C00A
:10470000A889B9898C9186FD0EC00FB607FCF5CF3C
:10471000808185FFF2CFA889B9898C9185FFEDCF83
:10472000CE01C2DFE8CFDF91CF910895CF92DF9223
:10473000FF920F931F93CF93DF931F92CDB7DEB7F6
:104740006C01DC015B969C915B975C968C915C970D
:10475000981307C05096ED91FC915197808185FD8B
:1047600031C0F601038D10E00F5F1F4F0F7311274B
:10477000F02EF601848DF81210C00FB607FCF9CFA9
:10478000D6015096ED91FC915197808185FFF1CF34
:10479000C601698389DF6981ECCF838DE80FF11D44
:1047A000E35AFF4F6083D6015B960C935B9752965A
:1047B000ED91FC91539780818062808381E05896CF
:1047C0008C930DC0D6015696ED91FC91579760835E
:1047D0005096ED91FC91519780818064808381E0B7
:1047E00090E00F90DF91CF911F910F91FF90DF909C
:1047F000CF900895BF92CF92DF92EF92FF92CF9326
:10480000DF93EC016A017B01B22EE889F98982E02D
:104810008083411581EE580761057105A1F060E0C4
:1048200079E08DE390E0A70196010E94142F2150BA
:104830003109410951095695479537952795211515
:1048400080E1380798F0E889F989108260E874E817
:104850008EE190E0A70196010E94142F21503109AA
:10486000410951095695479537952795EC85FD8562
:10487000832F99278083EE85FF852083188EEC890E
:10488000FD89B082EA89FB89808180618083EA8921
:10489000FB89808188608083EA89FB8980818068C8
:1048A0008083EA89FB8980818F7D8083DF91CF912E
:1048B000FF90EF90DF90CF90BF9008951F920F92DE
:1048C0000FB60F9211242F938F939F93EF93FF9323
:1048D000E091EE03F091EF038081E091F403F09119
:1048E000F50382FD12C090818091F7038F5F8F7373
:1048F0002091F803821751F0E091F703F0E0E252C3
:10490000FC4F958F8093F70301C08081FF91EF9159
:104910009F918F912F910F900FBE0F901F90189520
:104920001F920F920FB60F9211242F933F934F9324
:104930005F936F937F938F939F93AF93BF93EF9307
:10494000FF938EED93E0B0DEFF91EF91BF91AF91B9
:104950009F918F917F916F915F914F913F912F9197
:104960000F900FBE0F901F90189570CE0895DC0128
:10497000ED91FC910190F081E02D099508950F9340
:104980001F93CF93DF93EC016DE0F1DF8C016AE0C0
:10499000CE01EDDF800F911FDF91CF911F910F911D
:1049A00008950C94BA2F08950C94523008951F92D4
:1049B0000F920FB60F9211242F933F938F939F93D3
:1049C000AF93BF938091D6039091D703A091D80362
:1049D000B091D9033091D50323E0230F2D3720F474
:1049E0000196A11DB11D05C026E8230F0296A11D49
:1049F000B11D2093D5038093D6039093D703A09342
:104A0000D803B093D9038091DA039091DB03A0918E
:104A1000DC03B091DD030196A11DB11D8093DA0383
:104A20009093DB03A093DC03B093DD03BF91AF91C0
:104A30009F918F913F912F910F900FBE0F901F90DC
:104A400018952FB7F8946091D6037091D703809191
:104A5000D8039091D9032FBF08953FB7F894809160
:104A6000DA039091DB03A091DC03B091DD0326B55E
:104A7000A89B02C02F3F89F43FBF6627782F892F5C
:104A80009A2F620F711D811D911DF2E0660F771F35
:104A9000881F991FFA95D1F708950196A11DB11DA0
:104AA000EBCF0197009739F0880F991F880F991F56
:104AB00002970197F1F70895789484B5826084BDD8
:104AC00084B5816084BD85B5826085BD85B5816012
:104AD00085BDEEE6F0E0808181608083E1E8F0E072
:104AE0001082808182608083808181608083E0E8A1
:104AF000F0E0808181608083E1EBF0E08081846080
:104B00008083E0EBF0E0808181608083EAE7F0E081
:104B100080818460808380818260808380818160E5
:104B200080838081806880831092C1000895CF9334
:104B3000DF9390E0FC01EC52FA4F2491FC01E85124
:104B4000FA4F8491882349F190E0880F991FFC0166
:104B5000E05FF94FA591B4918A5F994FFC01C5912F
:104B6000D4919FB7611108C0F8948C91209582234D
:104B70008C93888182230AC0623051F4F8948C911E
:104B8000322F309583238C938881822B888304C0B5
:104B9000F8948C91822B8C939FBFDF91CF910895D5
:104BA000A1E0B0E0E6EDF5E20C94912F282F30E083
:104BB000F901E054FA4F8491F901EC52FA4F149143
:104BC000F901E851FA4F04910023C1F0882319F04C
:104BD000698313DD6981E02FF0E0EE0FFF1FEA5FCC
:104BE000F94FA591B4919FB7F8948C91611103C0CE
:104BF0001095812301C0812B8C939FBF2196E4E007
:104C00000C94AD2FCF93DF93282F30E0F901E054BF
:104C1000FA4F8491F901EC52FA4FD491F901E8511D
:104C2000FA4FC491CC2379F08111E7DCEC2FF0E04E
:104C3000EE0FFF1FE450FA4FA591B4912C912D2354
:104C400081E090E011F480E090E0DF91CF91089551
:104C50000895CF92DF92EF92FF92CF93DF936B0193
:104C60007C01FBDEEB01C114D104E104F10479F015
:104C7000EFDFF3DE6C1B7D0B683E7340A0F381E039
:104C8000C81AD108E108F108C851DC4FECCFDF9118
:104C9000CF91FF90EF90DF90CF900895FFCF1092CB
:104CA000E1031092E00388EE93E0A0E0B0E080938F
:104CB000E2039093E303A093E403B093E50380E25F
:104CC00092E09093DF038093DE0385EC90E0909375
:104CD000EB038093EA0384EC90E09093ED038093E0
:104CE000EC0380EC90E09093EF038093EE0381EC73
:104CF00090E09093F1038093F00382EC90E0909326
:104D0000F3038093F20386EC90E09093F503809395
:104D1000F4031092F7031092F8031092F903109223
:104D2000FA03089522E231E0FC01318320830895E3
:104D300022E231E0FC013183208336CE0895A1E0E8
:104D4000B0E0E5EAF6E20C94912F8C01DC01ED91E4
:104D5000FC910280F381E02D6983099569816817D0
:104D600059F0F80162838091B000662311F08062EF
:104D700001C08F7D8093B0002196E4E00C94AD2FAC
:104D800061E083E0D4DE81E28093B0008BE0809329
:104D9000B1008DE78093B3008EE38093B400089553
:104DA000A0E0B0E0E6EDF6E20C948E2FD62E7A016C
:104DB000C0E0D0E0062F10E001501109CD15C8F475
:104DC0008091B00080628093B000B7018DE592E0E1
:104DD0000E94FB2E8091B0008F7D8093B000C017A1
:104DE000D1072CF4B7018DE592E00E94FB2E2196AD
:104DF000E5CFCDB7DEB7E7E00C94AA2F10927D0483
:104E000080E392E090937C0480937B04089582E297
:104E100091E090937C0480937B0408950C940000AF
:104E20000895089549DE0E94A103C7E4D3E20E94D9
:104E30000F042097E1F32BDCFACF1F920F920FB6ED
:104E40000F9211240F900FBE0F901F901895089588
:104E50003BD34CE750E0682F80E061C9089543E8F8
:104E600056E060E087E05BC90895A4E0B0E0EBE3C2
:104E7000F7E20C94932F82E6898386E68A8380E7A3
:104E80008B838FE68C8320D38C0F9D1F60E0FC0109
:104E900081810E9450172496E2E00C94AF2F6F920C
:104EA0007F929F92AF92BF92CF92DF92EF92FF924A
:104EB0000F931F93CF93DF931F92CDB7DEB77C0183
:104EC0008B015A0169018EE592E08CD73C01912C4F
:104ED000B3018EE592E076D70A9750F50E9442140E
:104EE000882339F08EE592E07DD73C01F7010995E2
:104EF00002C0911004C0F8010995912C05C0F0E89A
:104F00009F1202C0F501099580910003882349F0A2
:104F1000109200038983F8010995F60109958981AA
:104F200008C0939463E070E08DE592E064D7D0CF41
:104F300080E00F90DF91CF911F910F91FF90EF9044
:104F4000DF90CF90BF90AF909F907F906F9008952B
:104F500042E050E060E070E080E090E0A5D220E91F
:104F600038E248E257E26FE970E287E297E297CFD2
:104F70000895CF93C091D3038C2F8C7F27D9E8DF7E
:104F80008C2F24D9CF910895CF93C0912E036C2FED
:104F900088E392E00E94210443E050E060E070E08A
:104FA00090E082D229EA38E24FE257E26BEF70E2FA
:104FB00085E397E274DF811104C060E08C2F0E94CA
:104FC0005017CF910895A9E0B0E0E8EEF7E29DC751
:104FD0002B016A014901FC0109957C01A09038036D
:104FE000B090390360913A0370913B039058029757
:104FF00018F4E12C88ECF82E882777FD8095982FFF
:105000000E94831C3C01B501882777FD8095982F6D
:105010000E94831C5C01B701882777FD8095982F3B
:105020000E94831CA301B5013FD28EE592E0DAD63F
:105030005C01712CB5018EE592E0C4D60A9708F0A8
:105040004CC00E944214882389F18EE592E0CAD6B2
:105050005C013AD20E94BB1C7C01AC01602F8CE049
:105060000CD880910003882321F310920003C7011C
:10507000F2010995A701662757FD6095762F09E093
:1050800021E0CE0101960E94441C9F938F93DF92F2
:10509000CF9286E296E09F938F93F40109950F904B
:1050A0000F900F900F900F900F9017C0711006C0C7
:1050B000A701602F8CE00E943D2008C0F0E87F121D
:1050C00005C04CE750E0602F8CE029D8739463E072
:1050D00070E08DE592E08FD6ADCF2996E0E131C743
:1050E0000F931F9302E010E020ED31E14FE156E015
:1050F00060EC79E186EC97E166DF1F910F910895EE
:105100000F931F9301E010E021E731E14AE156E0FF
:1051100061E979E18FEA97E156DF1F910F910895D8
:10512000D3D18130910539F08230910559F0892B26
:1051300079F42ACF089560E082E60E9450175BD888
:10514000DFCF089560E086E60E94501754D8C8CF9C
:10515000089580912E03823611F4D2CF08958636B9
:1051600011F4BECF0895803719F482E696E004C0AA
:105170008F3641F481E496E09F938F930E947111E2
:105180000F900F9008951F93CF93DF93EC01162F8C
:105190006B8360E0812FCBDC612F70E0FB01EC5270
:1051A000FA4FE491E883FB01E851FA4FE491F0E013
:1051B000EE0FFF1FE450FA4F859194919A838983F3
:1051C000DF91CF911F910895FF920F931F93CF937B
:1051D000DF93FC010081C181D281F8948981F02E96
:1051E000F0948F21898378941DE7115009F182E0B2
:1051F00090E057DC88818023C1F3F8948A818F2165
:105200008A838981802B8983789480EE91E049DCC0
:10521000F89489818F21898386E490E042DC88813B
:10522000802311E009F010E078948AE991E039DCFC
:10523000812FCDB7DEB7E5E08FC60F931F93CF93D5
:10524000DF93FC011081C181D281662319F007E34D
:105250008AE002C005E081E4F8942A81912F9095BC
:1052600092239A839981912B998390E01ADC9A81F9
:10527000912B9A837894802F90E013DCDF91CF916B
:105280001F910F9108950F931F93CF93DF93FC010C
:105290001081C181D281F8948981812B89838A818F
:1052A000012F009580238A8383E090E0FADB8981D7
:1052B000802389838AE090E0F4DBC881789485E3D9
:1052C00090E0EFDB1C2381E009F480E0DF91CF91D7
:1052D0001F910F910895EF92FF920F931F93CF9319
:1052E000DF938C01E62EC8E0D0E0FF24F39461E068
:1052F0009F2D9E2109F460E0C8019FDFFF0C2197DC
:105300002097A9F7CDB7DEB7E6E025C6EF92FF926A
:105310000F931F93CF93DF938C01C8E0D0E0F12C63
:10532000EE24E394C801AFDF8111FE28EE0C219733
:105330002097C1F78F2DCDB7DEB7E6E00CC6A0E011
:10534000B0E0E4EAF9E2E9C5EC017B018A01690118
:105350009ADFF8018083CE0196DFF6018083F801A1
:105360009081911103C0811105C006C0913011F4E4
:10537000813011F0F7019083F7016081CE015DDF8C
:10538000CDB7DEB7E8E0E5C5823119F48EE794E0E9
:10539000089580E090E00895843030F4E82FF0E044
:1053A000E35CFD4F808108958FEF0895811102C065
:1053B00084E008958FEF0895811102C082E108957D
:1053C0008FEF089562E189E894E0DDDE8EE794E0F6
:1053D00006C808951F920F920FB60F9211242F93B3
:1053E0003F934F935F936F937F938F939F93AF936D
:1053F000BF93EF93FF934F9B0E943A14FF91EF915D
:10540000BF91AF919F918F917F916F915F914F91DC
:105410003F912F910F900FBE0F901F9018951F92E4
:105420000F920FB60F9211242F933F934F935F93D8
:105430006F937F938F939F93AF93BF93EF93FF935C
:1054400083B163B191E066956170692781708927A6
:105450000E94F413FF91EF91BF91AF919F918F91B3
:105460007F916F915F914F913F912F910F900FBE60
:105470000F901F90189562E088E059DB62E089E0A8
:1054800056DB62E087E053DBE8E6F0E08081856090
:105490008083EBE6F0E0808183608083EDE6F0E0DE
:1054A00080818068808308952FB7F89490930203D9
:1054B00080930103709304036093030350930603E6
:1054C000409305032FBF08952FB7F89480910103EF
:1054D000909102032FBF089508950895B7E0A0EDBD
:1054E000002409D032F40A94E1F71197C9F72894FF
:1054F00008C0A89406C0A8941B9901C02894000075
:1055000008950895229823982A982B9888279927F8
:105510001A9B08951B9B089581E0089581E00895EA
:10552000F8941B9BDBDF229AD7DF1DC081E0089532
:105530008F938F918F93F8941B9BD0DF229ACCDFAF
:1055400012D0882311F404D0F4CF0F900895089559
:10555000239A229AC1DF2398BFDF1B9BBFDF2298CB
:10556000BBDF789408950894881F01C0880FA9F0C4
:10557000239A00000000000018F40000229802C0E6
:10558000229A00C02398A8940000000000001B9BF2
:10559000A5DF12F488270FC0E9CF239A000000008E
:1055A0002298992788272398A89400001B9B96DFB0
:1055B0008AF31A9B81E000000000239A089581E09D
:1055C0000895FC011382128285E492E09183808326
:1055D00087E2848384E1838784E084871586089545
:1055E000A1E0B0E0E5EFFAE29EC4FC018585682BFE
:1055F0008481880F69839CDF6981862FB4DFA8DFEF
:105600002196E2E0ACC428E0FC01258760E0E8CF09
:1056100008951F93CF93DF93EC01162F6460E0DFB2
:1056200081E090E03EDA612F6B7FCE01D9DF82E32B
:1056300090E037DADF91CF911F9108951F93CF93B8
:10564000DF93EC01162FCCDF612FCE01E2DFDF917B
:10565000CF911F910895EF92FF921F93CF93DF9305
:105660001F92CDB7DEB77C01162F607F642B498374
:10567000E5DF80E1189FB00111244981642BC70147
:10568000DDDF0F90DF91CF911F91FF90EF90089594
:1056900040E0E1CF0895CF93DF93EC0161E0F8DFC4
:1056A000AC8580E090E065E1B0E28A17F8F47B8594
:1056B000689FA001699F500D11244C0F5D1F20E0D1
:1056C00030E0271738F4FA01E20FF31FB18B2F5F98
:1056D0003F4FF7CF689FF001699FF00D1124EC0F49
:1056E000FD1FE70FF11D118A0196DFCF80ED97E0D6
:1056F000D8D9DF91CF91089562E0CADF80ED97E0BD
:10570000D0C90895A8E0B0E0E7E8FBE20CC428E0C7
:10571000E6E1F1E0DE01119601900D922A95E1F7A4
:10572000FC012085241710F44FEF420FFC01418744
:105730006287FE013196E40FF11DE40FF11D208117
:10574000260F2068622FA4DF2896E2E008C4FC013F
:105750006681262F246026836C609ACF0895FC0111
:105760002285318545E1349FE00DF11D1124E20FC2
:10577000F11D618B2F5FFC0122872089211102C05E
:1057800041E069DF80E090E00895CF93DF93EC0182
:10579000423018F08D8188608D83488719861A867B
:1057A00062E370E080E090E054DA6D85CE0118DFAE
:1057B00068EE73E080E090E04CDA60E3CE013EDF1B
:1057C00084E991E16ED960E3CE0138DF84E991E1AB
:1057D00068D960E3CE0132DF86E990E062D960E209
:1057E000CE012CDF6D816062CE0152DF84E08E83BA
:1057F000CE01ADDFCE014FDF82E08F8366E0CE01C8
:1058000047DFCE0179DFDF91CF910895CF93DF930A
:10581000EC0178DE8C81880F83DE1D8220E04C85D0
:105820006B85CE01B2DFDF91CF910895CF93DF93E7
:10583000EC01ECDF1F861E86DF91CF910895CF9398
:10584000DF93EC018EE592E0CDD29F878E87DF91CA
:10585000CF910895D8CE0895CF93DF939C0175E141
:10586000679F200D311D11242F5E3F4FA0E0FC01EA
:105870006385A61778F46A2F70E0F901E60FF71F29
:10588000E081EA01C60FD71FEF3D09F4E0EBE883A2
:10589000AF5FEDCFFA01E60FF11D1082DF91CF91DE
:1058A0000895CF93DF93EC019A858B85981720F4A8
:1058B00060E2CE015CD8F8CFDF91CF9108958BE7FD
:1058C00094E05EDA44EF51E062E08BE794E068DA5E
:1058D0000E94F41FD0DD80E0089560E070E0CB010D
:1058E00008950E949F200C943121089580915C02BC
:1058F000882369F0E0917B04F0917C040280F381BD
:10590000E02D8BE794E0099561E0682701C060E035
:105910008BE794E014DA80910003882319F0109249
:10592000000327CB08950E9431210E94BC200E94D1
:10593000FB208EE693E08ECF089580E008950B96CD
:1059400043DC91E0811101C090E0892F0895FC01B2
:10595000718360830895FF920F931F93CF93DF931A
:10596000EC018B01F42E88819981E9DFB8018881EF
:1059700099810E94D4218881998140E06F2D0B96F6
:10598000AADCCDB7DEB7E5E0E7C2EF92FF920F9356
:105990001F93CF93DF93EC017A014EEBDCDF00E045
:1059A00010E0888199810B96B1DCF70181937F012A
:1059B0000F5F1F4F09301105A1F788819981BFDF63
:1059C000CDB7DEB7E6E0C7C2A0E0B0E0E9EEFCE2AA
:1059D000A5C28C017B01EA0182E0D82EAE01B7019D
:1059E000C801D3DF68E0CE010E948E229885891716
:1059F00021F0DA9499F780E001C081E0CDB7DEB7FD
:105A0000E7E0A8C2A0E0B0E0E7E0FDE286C2EC017A
:105A10007B018A01C22E4EE49EDF0E5F1F4F93E092
:105A2000D92EF80161918F018881998140E00B9610
:105A300052DCDA94B1F78881998181DFCC2071F052
:105A4000B701888199810E94D4218881998140E0A1
:105A500068E40B9640DC8881998171DFCDB7DEB7B1
:105A6000E8E077C2A2E0B0E0E7E3FDE25AC28C01D1
:105A7000FC018081918169837A8361DF69817A8108
:105A8000F801808191810E94D421F8018081918167
:105A900040E068EB0B961FDC2296E4E05EC21F93A9
:105AA000CF93DF93EC0144EB56DF888199810B960D
:105AB000EADB182F8881998142DF81E0111180E0B3
:105AC000DF91CF911F910895A9E0B0E0E9E6FDE2F2
:105AD00025C28C017B01E3DF882311F0D12C2BC080
